{
  "address": "0x14835B093D320AA5c9806BBC64C17F0F2546D9EE",
  "abi": [
    {
      "inputs": [],
      "name": "InvalidPrice",
      "type": "error"
    },
    {
      "inputs": [],
      "name": "RequestedExceedsUnlocked",
      "type": "error"
    },
    {
      "inputs": [
        {
          "internalType": "bytes",
          "name": "extraData",
          "type": "bytes"
        }
      ],
      "name": "decodeExtraData",
      "outputs": [
        {
          "internalType": "uint256",
          "name": "startTime",
          "type": "uint256"
        },
        {
          "internalType": "uint256",
          "name": "interval",
          "type": "uint256"
        },
        {
          "internalType": "uint256",
          "name": "chunkAmount",
          "type": "uint256"
        },
        {
          "internalType": "address",
          "name": "priceFeed",
          "type": "address"
        },
        {
          "internalType": "uint8",
          "name": "makerDecimals",
          "type": "uint8"
        },
        {
          "internalType": "uint8",
          "name": "takerDecimals",
          "type": "uint8"
        }
      ],
      "stateMutability": "pure",
      "type": "function"
    },
    {
      "inputs": [
        {
          "components": [
            {
              "internalType": "uint256",
              "name": "salt",
              "type": "uint256"
            },
            {
              "internalType": "Address",
              "name": "maker",
              "type": "uint256"
            },
            {
              "internalType": "Address",
              "name": "receiver",
              "type": "uint256"
            },
            {
              "internalType": "Address",
              "name": "makerAsset",
              "type": "uint256"
            },
            {
              "internalType": "Address",
              "name": "takerAsset",
              "type": "uint256"
            },
            {
              "internalType": "uint256",
              "name": "makingAmount",
              "type": "uint256"
            },
            {
              "internalType": "uint256",
              "name": "takingAmount",
              "type": "uint256"
            },
            {
              "internalType": "MakerTraits",
              "name": "makerTraits",
              "type": "uint256"
            }
          ],
          "internalType": "struct IOrderMixin.Order",
          "name": "",
          "type": "tuple"
        },
        {
          "internalType": "bytes",
          "name": "",
          "type": "bytes"
        },
        {
          "internalType": "bytes32",
          "name": "",
          "type": "bytes32"
        },
        {
          "internalType": "address",
          "name": "",
          "type": "address"
        },
        {
          "internalType": "uint256",
          "name": "takingAmount",
          "type": "uint256"
        },
        {
          "internalType": "uint256",
          "name": "remainingMakingAmount",
          "type": "uint256"
        },
        {
          "internalType": "bytes",
          "name": "extraData",
          "type": "bytes"
        }
      ],
      "name": "getMakingAmount",
      "outputs": [
        {
          "internalType": "uint256",
          "name": "makerAmount",
          "type": "uint256"
        }
      ],
      "stateMutability": "view",
      "type": "function"
    },
    {
      "inputs": [
        {
          "components": [
            {
              "internalType": "uint256",
              "name": "salt",
              "type": "uint256"
            },
            {
              "internalType": "Address",
              "name": "maker",
              "type": "uint256"
            },
            {
              "internalType": "Address",
              "name": "receiver",
              "type": "uint256"
            },
            {
              "internalType": "Address",
              "name": "makerAsset",
              "type": "uint256"
            },
            {
              "internalType": "Address",
              "name": "takerAsset",
              "type": "uint256"
            },
            {
              "internalType": "uint256",
              "name": "makingAmount",
              "type": "uint256"
            },
            {
              "internalType": "uint256",
              "name": "takingAmount",
              "type": "uint256"
            },
            {
              "internalType": "MakerTraits",
              "name": "makerTraits",
              "type": "uint256"
            }
          ],
          "internalType": "struct IOrderMixin.Order",
          "name": "",
          "type": "tuple"
        },
        {
          "internalType": "bytes",
          "name": "",
          "type": "bytes"
        },
        {
          "internalType": "bytes32",
          "name": "",
          "type": "bytes32"
        },
        {
          "internalType": "address",
          "name": "",
          "type": "address"
        },
        {
          "internalType": "uint256",
          "name": "makingAmount",
          "type": "uint256"
        },
        {
          "internalType": "uint256",
          "name": "remainingMakingAmount",
          "type": "uint256"
        },
        {
          "internalType": "bytes",
          "name": "extraData",
          "type": "bytes"
        }
      ],
      "name": "getTakingAmount",
      "outputs": [
        {
          "internalType": "uint256",
          "name": "takerAmount",
          "type": "uint256"
        }
      ],
      "stateMutability": "view",
      "type": "function"
    }
  ],
  "transactionHash": "0x902b6adc7154f9c79cd9be003cf3b009116c1d5698fadeafa24b6b3c7906166d",
  "args": [],
  "numDeployments": 1,
  "solcInputHash": "5686439602e91d2479da7918032867c0",
  "bytecode": "0x60808060405234610016576105cf908161001b8239f35b5f80fdfe60806040526004361015610011575f80fd5b5f3560e01c80631d9671c3146101935780635ef271c6146100f55763d7ff8a801461003a575f80fd5b346100f15761006061006c61004e36610247565b945094509550969350508101906102ff565b96939095929194610560565b84116100c7576020936100b46100af6100bf956100aa6100a473ffffffffffffffffffffffffffffffffffffffff6100ba971661041d565b96610358565b610397565b6103ab565b926103bc565b6103cf565b604051908152f35b60046040517f37766e12000000000000000000000000000000000000000000000000000000008152fd5b5f80fd5b346100f15760207ffffffffffffffffffffffffffffffffffffffffffffffffffffffffffffffffc3601126100f15760043567ffffffffffffffff81116100f15773ffffffffffffffffffffffffffffffffffffffff60ff8061016961016160c0953690600401610219565b8101906102ff565b959497929093604051988952602089015260408801521660608601521660808401521660a0820152f35b346100f15773ffffffffffffffffffffffffffffffffffffffff6100af6101fe6101e06101f26100aa6101f86100a46100ba6101ce36610247565b945094509b94509450508101906102ff565b929e8f9b959e949a929891981661041d565b906103bc565b94610560565b81116100c757816102146020936100bf936103cf565b6103bc565b9181601f840112156100f15782359167ffffffffffffffff83116100f157602083818601950101116100f157565b907ffffffffffffffffffffffffffffffffffffffffffffffffffffffffffffffffc82016101c081126100f157610100136100f15760049167ffffffffffffffff90610104358281116100f157816102a191600401610219565b9390939261012435926101443573ffffffffffffffffffffffffffffffffffffffff811681036100f15792610164359261018435926101a4359182116100f1576102ed91600401610219565b9091565b359060ff821682036100f157565b91908260c09103126100f157813591602081013591604082013591606081013573ffffffffffffffffffffffffffffffffffffffff811681036100f1579161035560a061034e608085016102f1565b93016102f1565b90565b60ff60089116019060ff821161036a57565b7f4e487b71000000000000000000000000000000000000000000000000000000005f52601160045260245ffd5b9060ff8091169116039060ff821161036a57565b60ff16604d811161036a57600a0a90565b8181029291811591840414171561036a57565b81156103d9570490565b7f4e487b71000000000000000000000000000000000000000000000000000000005f52601260045260245ffd5b519069ffffffffffffffffffff821682036100f157565b60a073ffffffffffffffffffffffffffffffffffffffff916004604051809481937ffeaf968c000000000000000000000000000000000000000000000000000000008352165afa908115610555575f916104a7575b505f81131561047e5790565b60046040517ebfc921000000000000000000000000000000000000000000000000000000008152fd5b905060a03d60a01161054e575b7fffffffffffffffffffffffffffffffffffffffffffffffffffffffffffffffe0601f820116820182811067ffffffffffffffff8211176105215760a0918391604052810103126100f15761050881610406565b5061051a608060208301519201610406565b505f610472565b7f4e487b71000000000000000000000000000000000000000000000000000000005f52604160045260245ffd5b503d6104b4565b6040513d5f823e3d90fd5b91909180421061059157420342811161036a5761058092610214916103cf565b8181111561058c575090565b905090565b505050505f9056fea2646970667358221220e1775e36b4e173f45a60e1fd2b1dc33f96c6b45ef5ca4a88ba745b3b84e3a9b264736f6c63430008170033",
  "devdoc": {
    "kind": "dev",
    "methods": {},
    "title": "TWAPCalculator (Chunk-Based)",
    "version": 1
  },
  "userdoc": {
    "kind": "user",
    "methods": {
      "decodeExtraData(bytes)": {
        "notice": "Decode parameters from extraData"
      },
      "getMakingAmount((uint256,uint256,uint256,uint256,uint256,uint256,uint256,uint256),bytes,bytes32,address,uint256,uint256,bytes)": {
        "notice": "Called by Fusion to calculate how much makerAsset is given for a takerAsset amount"
      },
      "getTakingAmount((uint256,uint256,uint256,uint256,uint256,uint256,uint256,uint256),bytes,bytes32,address,uint256,uint256,bytes)": {
        "notice": "Called by Fusion to calculate takerAsset required for a given makingAmount"
      }
    },
    "notice": "Calculates fixed-interval unlocked amounts for makerAsset with Chainlink pricing.",
    "version": 1
  },
  "storageLayout": {
    "storage": [],
    "types": null
  }
}