{
  "address": "0x14835B093D320AA5c9806BBC64C17F0F2546D9EE",
  "abi": [
    {
      "inputs": [],
      "name": "InvalidPrice",
      "type": "error"
    },
    {
      "inputs": [],
      "name": "RequestedExceedsUnlocked",
      "type": "error"
    },
    {
      "inputs": [
        {
          "internalType": "bytes",
          "name": "extraData",
          "type": "bytes"
        }
      ],
      "name": "decodeExtraData",
      "outputs": [
        {
          "internalType": "uint256",
          "name": "startTime",
          "type": "uint256"
        },
        {
          "internalType": "uint256",
          "name": "interval",
          "type": "uint256"
        },
        {
          "internalType": "uint256",
          "name": "chunkAmount",
          "type": "uint256"
        },
        {
          "internalType": "uint256",
          "name": "totalAmount",
          "type": "uint256"
        },
        {
          "internalType": "address",
          "name": "priceFeed",
          "type": "address"
        },
        {
          "internalType": "uint8",
          "name": "makerDecimals",
          "type": "uint8"
        },
        {
          "internalType": "uint8",
          "name": "takerDecimals",
          "type": "uint8"
        }
      ],
      "stateMutability": "pure",
      "type": "function"
    },
    {
      "inputs": [
        {
          "components": [
            {
              "internalType": "uint256",
              "name": "salt",
              "type": "uint256"
            },
            {
              "internalType": "Address",
              "name": "maker",
              "type": "uint256"
            },
            {
              "internalType": "Address",
              "name": "receiver",
              "type": "uint256"
            },
            {
              "internalType": "Address",
              "name": "makerAsset",
              "type": "uint256"
            },
            {
              "internalType": "Address",
              "name": "takerAsset",
              "type": "uint256"
            },
            {
              "internalType": "uint256",
              "name": "makingAmount",
              "type": "uint256"
            },
            {
              "internalType": "uint256",
              "name": "takingAmount",
              "type": "uint256"
            },
            {
              "internalType": "MakerTraits",
              "name": "makerTraits",
              "type": "uint256"
            }
          ],
          "internalType": "struct IOrderMixin.Order",
          "name": "",
          "type": "tuple"
        },
        {
          "internalType": "bytes",
          "name": "",
          "type": "bytes"
        },
        {
          "internalType": "bytes32",
          "name": "",
          "type": "bytes32"
        },
        {
          "internalType": "address",
          "name": "",
          "type": "address"
        },
        {
          "internalType": "uint256",
          "name": "takingAmount",
          "type": "uint256"
        },
        {
          "internalType": "uint256",
          "name": "remainingMakingAmount",
          "type": "uint256"
        },
        {
          "internalType": "bytes",
          "name": "extraData",
          "type": "bytes"
        }
      ],
      "name": "getMakingAmount",
      "outputs": [
        {
          "internalType": "uint256",
          "name": "makerAmount",
          "type": "uint256"
        }
      ],
      "stateMutability": "view",
      "type": "function"
    },
    {
      "inputs": [
        {
          "components": [
            {
              "internalType": "uint256",
              "name": "salt",
              "type": "uint256"
            },
            {
              "internalType": "Address",
              "name": "maker",
              "type": "uint256"
            },
            {
              "internalType": "Address",
              "name": "receiver",
              "type": "uint256"
            },
            {
              "internalType": "Address",
              "name": "makerAsset",
              "type": "uint256"
            },
            {
              "internalType": "Address",
              "name": "takerAsset",
              "type": "uint256"
            },
            {
              "internalType": "uint256",
              "name": "makingAmount",
              "type": "uint256"
            },
            {
              "internalType": "uint256",
              "name": "takingAmount",
              "type": "uint256"
            },
            {
              "internalType": "MakerTraits",
              "name": "makerTraits",
              "type": "uint256"
            }
          ],
          "internalType": "struct IOrderMixin.Order",
          "name": "",
          "type": "tuple"
        },
        {
          "internalType": "bytes",
          "name": "",
          "type": "bytes"
        },
        {
          "internalType": "bytes32",
          "name": "",
          "type": "bytes32"
        },
        {
          "internalType": "address",
          "name": "",
          "type": "address"
        },
        {
          "internalType": "uint256",
          "name": "makingAmount",
          "type": "uint256"
        },
        {
          "internalType": "uint256",
          "name": "remainingMakingAmount",
          "type": "uint256"
        },
        {
          "internalType": "bytes",
          "name": "extraData",
          "type": "bytes"
        }
      ],
      "name": "getTakingAmount",
      "outputs": [
        {
          "internalType": "uint256",
          "name": "takerAmount",
          "type": "uint256"
        }
      ],
      "stateMutability": "view",
      "type": "function"
    }
  ],
  "transactionHash": "0x1b43f8c095310882a10066efba19bfb89971618194d95cfb550d4e50234e15ee",
  "args": [],
  "numDeployments": 1,
  "solcInputHash": "5c073a083d39a46c6e30058fb3a7ab58",
  "bytecode": "0x6080806040523461001657610785908161001b8239f35b5f80fdfe60a06040526004361015610011575f80fd5b60e05f35811c80631d9671c3146103065780635ef271c6146102615763d7ff8a801461003b575f80fd5b34610256578060449161004d366103dd565b99975092509694509791508692507fffffffffffffffffffffffffffffffffffffffffffffffffffffffffffffffe0601f60405198899586947f5ef271c600000000000000000000000000000000000000000000000000000000865260206004870152816024870152868601375f85828601015201168101030181305afa915f80945f80865f935f975f996101d2575b50506101415760646040517f08c379a000000000000000000000000000000000000000000000000000000000815260206004820152602060248201527f545741503a204661696c656420746f206465636f6465206578747261446174616044820152fd5b6101519397909192959697610716565b90808210156101cb57505b84116101a15760209361018e6101896101999561018461017e61019496610634565b966104f3565b610532565b610546565b92610557565b61056a565b604051908152f35b60046040517f37766e12000000000000000000000000000000000000000000000000000000008152fd5b905061015c565b969750985096505050505083813d831161025a575b6101f181836105a1565b81010312610256578251906020840151604085015194606081015160808201519073ffffffffffffffffffffffffffffffffffffffff821682036102565761024760c061024060a0860161060f565b940161060f565b95939790919295965f806100dd565b5f80fd5b503d6101e7565b50346102565760207ffffffffffffffffffffffffffffffffffffffffffffffffffffffffffffffffc3601126102565760043567ffffffffffffffff81116102565760ff806102d46102cc73ffffffffffffffffffffffffffffffffffffffff9436906004016103af565b810190610495565b969598939094604093929351998a5260208a0152604089015260608801521660808601521660a08401521660c0820152f35b346102565761019461037461035a61038273ffffffffffffffffffffffffffffffffffffffff61018461018961037c61036e610341366103dd565b608093909352909d965090810194509250610495915050565b929a849f969e9599949a9297919716610634565b956104f3565b608051610557565b95610716565b90808210156103a857505b81116101a157816103a36020936101999361056a565b610557565b905061038d565b9181601f840112156102565782359167ffffffffffffffff8311610256576020838186019501011161025657565b907ffffffffffffffffffffffffffffffffffffffffffffffffffffffffffffffffc82016101c0811261025657610100136102565760049167ffffffffffffffff90610104358281116102565781610437916004016103af565b9390939261012435926101443573ffffffffffffffffffffffffffffffffffffffff811681036102565792610164359261018435926101a43591821161025657610483916004016103af565b9091565b359060ff8216820361025657565b908160e091031261025657803591602082013591604081013591606082013591608081013573ffffffffffffffffffffffffffffffffffffffff8116810361025657916104f060c06104e960a08501610487565b9301610487565b90565b60ff60089116019060ff821161050557565b7f4e487b71000000000000000000000000000000000000000000000000000000005f52601160045260245ffd5b9060ff8091169116039060ff821161050557565b60ff16604d811161050557600a0a90565b8181029291811591840414171561050557565b8115610574570490565b7f4e487b71000000000000000000000000000000000000000000000000000000005f52601260045260245ffd5b90601f7fffffffffffffffffffffffffffffffffffffffffffffffffffffffffffffffe0910116810190811067ffffffffffffffff8211176105e257604052565b7f4e487b71000000000000000000000000000000000000000000000000000000005f52604160045260245ffd5b519060ff8216820361025657565b519069ffffffffffffffffffff8216820361025657565b60a073ffffffffffffffffffffffffffffffffffffffff916004604051809481937ffeaf968c000000000000000000000000000000000000000000000000000000008352165afa90811561070b575f916106be575b505f8113156106955790565b60046040517ebfc921000000000000000000000000000000000000000000000000000000008152fd5b905060a0813d60a011610703575b816106d960a093836105a1565b81010312610256576106ea8161061d565b506106fc60806020830151920161061d565b505f610689565b3d91506106cc565b6040513d5f823e3d90fd5b91909180421061074757420342811161050557610736926103a39161056a565b81811115610742575090565b905090565b505050505f9056fea2646970667358221220369a048fa469fb9cbf3a76dab2657f4b50ee744e6a29b554376886645291e33364736f6c63430008170033",
  "devdoc": {
    "kind": "dev",
    "methods": {},
    "title": "TWAPCalculator",
    "version": 1
  },
  "userdoc": {
    "kind": "user",
    "methods": {
      "getMakingAmount((uint256,uint256,uint256,uint256,uint256,uint256,uint256,uint256),bytes,bytes32,address,uint256,uint256,bytes)": {
        "notice": "Called by Fusion to calculate how much makerAsset can be bought for a given takerAsset amount"
      }
    },
    "notice": "Calculates time-unlocked makerAsset amounts with real-time pricing via Chainlink.         Fully Fusion-compatible and supports arbitrary token decimals via extraData.",
    "version": 1
  },
  "storageLayout": {
    "storage": [],
    "types": null
  }
}