{
  "address": "0xEF8bBdF7955E8101d52e3f09144462f86bAeA5e0",
  "abi": [
    {
      "inputs": [],
      "name": "InvalidPrice",
      "type": "error"
    },
    {
      "inputs": [],
      "name": "RequestedExceedsUnlocked",
      "type": "error"
    },
    {
      "inputs": [
        {
          "components": [
            {
              "internalType": "uint256",
              "name": "salt",
              "type": "uint256"
            },
            {
              "internalType": "Address",
              "name": "maker",
              "type": "uint256"
            },
            {
              "internalType": "Address",
              "name": "receiver",
              "type": "uint256"
            },
            {
              "internalType": "Address",
              "name": "makerAsset",
              "type": "uint256"
            },
            {
              "internalType": "Address",
              "name": "takerAsset",
              "type": "uint256"
            },
            {
              "internalType": "uint256",
              "name": "makingAmount",
              "type": "uint256"
            },
            {
              "internalType": "uint256",
              "name": "takingAmount",
              "type": "uint256"
            },
            {
              "internalType": "MakerTraits",
              "name": "makerTraits",
              "type": "uint256"
            }
          ],
          "internalType": "struct IOrderMixin.Order",
          "name": "",
          "type": "tuple"
        },
        {
          "internalType": "bytes",
          "name": "",
          "type": "bytes"
        },
        {
          "internalType": "bytes32",
          "name": "",
          "type": "bytes32"
        },
        {
          "internalType": "address",
          "name": "",
          "type": "address"
        },
        {
          "internalType": "uint256",
          "name": "takingAmount",
          "type": "uint256"
        },
        {
          "internalType": "uint256",
          "name": "remainingMakingAmount",
          "type": "uint256"
        },
        {
          "internalType": "bytes",
          "name": "extraData",
          "type": "bytes"
        }
      ],
      "name": "getMakingAmount",
      "outputs": [
        {
          "internalType": "uint256",
          "name": "makerAmount",
          "type": "uint256"
        }
      ],
      "stateMutability": "view",
      "type": "function"
    },
    {
      "inputs": [
        {
          "components": [
            {
              "internalType": "uint256",
              "name": "salt",
              "type": "uint256"
            },
            {
              "internalType": "Address",
              "name": "maker",
              "type": "uint256"
            },
            {
              "internalType": "Address",
              "name": "receiver",
              "type": "uint256"
            },
            {
              "internalType": "Address",
              "name": "makerAsset",
              "type": "uint256"
            },
            {
              "internalType": "Address",
              "name": "takerAsset",
              "type": "uint256"
            },
            {
              "internalType": "uint256",
              "name": "makingAmount",
              "type": "uint256"
            },
            {
              "internalType": "uint256",
              "name": "takingAmount",
              "type": "uint256"
            },
            {
              "internalType": "MakerTraits",
              "name": "makerTraits",
              "type": "uint256"
            }
          ],
          "internalType": "struct IOrderMixin.Order",
          "name": "",
          "type": "tuple"
        },
        {
          "internalType": "bytes",
          "name": "",
          "type": "bytes"
        },
        {
          "internalType": "bytes32",
          "name": "",
          "type": "bytes32"
        },
        {
          "internalType": "address",
          "name": "",
          "type": "address"
        },
        {
          "internalType": "uint256",
          "name": "makingAmount",
          "type": "uint256"
        },
        {
          "internalType": "uint256",
          "name": "remainingMakingAmount",
          "type": "uint256"
        },
        {
          "internalType": "bytes",
          "name": "extraData",
          "type": "bytes"
        }
      ],
      "name": "getTakingAmount",
      "outputs": [
        {
          "internalType": "uint256",
          "name": "takerAmount",
          "type": "uint256"
        }
      ],
      "stateMutability": "view",
      "type": "function"
    }
  ],
  "transactionHash": "0x194345d916b7be673f309ad42e322ca73b1a3a046948b392cec7904d45ed7c27",
  "args": [],
  "numDeployments": 1,
  "solcInputHash": "a0f29a521064816be59a7e9f0a0c2f64",
  "bytecode": "0x6080806040523461001657610561908161001b8239f35b5f80fdfe60a06040526004361015610011575f80fd5b5f3560e01c80631d9671c3146100fd5763d7ff8a801461002f575f80fd5b346100f957610056610062610043366101d4565b945094509695509693505081019061028c565b979490969391956104f2565b90808210156100f257505b84116100c8576020936100b56100b06100c0956100ab6100a573ffffffffffffffffffffffffffffffffffffffff6100bb97166103af565b966102ea565b610329565b61033d565b9261034e565b610361565b604051908152f35b60046040517f37766e12000000000000000000000000000000000000000000000000000000008152fd5b905061006d565b5f80fd5b346100f9576100bb61016b61015161017973ffffffffffffffffffffffffffffffffffffffff6100ab6100b0610173610165610138366101d4565b608093909352909d96509081019450925061028c915050565b929a849f969e9599949a92979197166103af565b956102ea565b60805161034e565b956104f2565b908082101561019f57505b81116100c8578161019a6020936100c093610361565b61034e565b9050610184565b9181601f840112156100f95782359167ffffffffffffffff83116100f957602083818601950101116100f957565b907ffffffffffffffffffffffffffffffffffffffffffffffffffffffffffffffffc82016101c081126100f957610100136100f95760049167ffffffffffffffff90610104358281116100f9578161022e916004016101a6565b9390939261012435926101443573ffffffffffffffffffffffffffffffffffffffff811681036100f95792610164359261018435926101a4359182116100f95761027a916004016101a6565b9091565b359060ff821682036100f957565b908160e09103126100f957803591602082013591604081013591606082013591608081013573ffffffffffffffffffffffffffffffffffffffff811681036100f957916102e760c06102e060a0850161027e565b930161027e565b90565b60ff60089116019060ff82116102fc57565b7f4e487b71000000000000000000000000000000000000000000000000000000005f52601160045260245ffd5b9060ff8091169116039060ff82116102fc57565b60ff16604d81116102fc57600a0a90565b818102929181159184041417156102fc57565b811561036b570490565b7f4e487b71000000000000000000000000000000000000000000000000000000005f52601260045260245ffd5b519069ffffffffffffffffffff821682036100f957565b60a073ffffffffffffffffffffffffffffffffffffffff916004604051809481937ffeaf968c000000000000000000000000000000000000000000000000000000008352165afa9081156104e7575f91610439575b505f8113156104105790565b60046040517ebfc921000000000000000000000000000000000000000000000000000000008152fd5b905060a03d60a0116104e0575b7fffffffffffffffffffffffffffffffffffffffffffffffffffffffffffffffe0601f820116820182811067ffffffffffffffff8211176104b35760a0918391604052810103126100f95761049a81610398565b506104ac608060208301519201610398565b505f610404565b7f4e487b71000000000000000000000000000000000000000000000000000000005f52604160045260245ffd5b503d610446565b6040513d5f823e3d90fd5b9190918042106105235742034281116102fc576105129261019a91610361565b8181111561051e575090565b905090565b505050505f9056fea26469706673582212205d1799482a35108cfd83d52f20ed2dd4c9e717f1eaa56caaaaed8b497264250864736f6c63430008170033",
  "devdoc": {
    "kind": "dev",
    "methods": {},
    "title": "TWAPCalculator",
    "version": 1
  },
  "userdoc": {
    "kind": "user",
    "methods": {
      "getMakingAmount((uint256,uint256,uint256,uint256,uint256,uint256,uint256,uint256),bytes,bytes32,address,uint256,uint256,bytes)": {
        "notice": "Called by Fusion to calculate how much makerAsset can be bought for a given takerAsset amount"
      },
      "getTakingAmount((uint256,uint256,uint256,uint256,uint256,uint256,uint256,uint256),bytes,bytes32,address,uint256,uint256,bytes)": {
        "notice": "Called by Fusion to calculate the takerAsset amount required for a given makerAsset amount"
      }
    },
    "notice": "Calculates time-unlocked makerAsset amounts with real-time pricing via Chainlink.         Fully Fusion-compatible and supports arbitrary token decimals via extraData.",
    "version": 1
  },
  "storageLayout": {
    "storage": [],
    "types": null
  }
}